:020000040800F2
:1000000058060020C11F00089D1E00089F1E000802
:10001000A11E0008A31E0008A51E00080000000085
:10002000000000000000000000000000A71E000803
:10003000A91E000800000000AB1E0008AD1E00084D
:10004000F51F0008F91F0008FD1F00080120000827
:1000500005200008092000080D20000811200008D4
:1000600015200008192000081D2000082120000884
:1000700025200008292000082D2000083120000834
:1000800035200008392000083D20000841200008E4
:1000900045200008492000084D2000085120000894
:1000A00055200008592000085D2000086120000844
:1000B000AF1E000865200008692000086D200008B8
:1000C0007120000875200008792000087D200008B4
:1000D00081200008B51E0008BB1E0008C11E0008D4
:1000E00085200008892000088D2000089120000844
:1000F00095200008992000089D200008A1200008F4
:10010000A5200008A9200008AD200008B1200008A3
:10011000C71E0008CD1E0008B5200008B920000841
:10012000BD200008C1200008C5200008C920000823
:1001300038B5040001D1012032BD00F019F808B92A
:1001400000F01AF800F01DF800F025F8FFE7416113
:1001500000F001F832BD2068C16841F40051C1606F
:100160000020686020216970A970002161637047D8
:1001700004F140056878704700212970204600F09E
:100180000ABB242068702068C16821F40051C16056
:10019000204600F051BA2068016921F490410161C4
:1001A0002068416921F02A01704790F84130202BE6
:1001B00012D109B1130001D101207047016282847C
:1001C000C28400214164212280F841200068C16876
:1001D00041F0800100F099B90220704710B500F19C
:1001E00030039C7C202C0AD109B1140001D10120DC
:1001F00010BD00241C60BDE8104000F06EB9022064
:1002000010BD43E8002100297047016801F10C028C
:1002100052E8002F01F10C037047136800935268F5
:1002200000927047206800F1140151E8001F00F1AE
:10023000140221F0400142E80010002870477CB50C
:10024000044621680B68CD684A6913F00F0007D196
:10025000980661D5AA065FD52046BDE876408FE1B5
:10026000D00702D415F4907F56D0D80705D5E905FC
:1002700003D5606C40F001006064580705D5D107D4
:1002800003D5606C40F002006064980705D5D10783
:1002900003D5606C40F004006064180707D5A90618
:1002A00001D4D00703D5616C41F008016164606C32
:1002B000002830D0980604D5A90644BF204600F097
:1002C0005FF920684069616C0A0701D440061DD5BA
:1002D000204600F01DF920684169480611D5FFF756
:1002E000A1FFFCD1E06B60B10FF289214163E06BAB
:1002F00000F089FB00280ED0E06B416BBDE87C402C
:1003000008472046BDE8764000F006BC204600F0D5
:1003100003FC0020606473BD206B012804F14102DE
:1003200040F08080D80600D5EE067BD500230093F0
:100330000D6800954B6800930098496948063AD5C6
:10034000E16B0868406880B20028E4D0A38D984231
:10035000E1DAE0858869202827D0206800F10C01C7
:1003600051E8001F00F10C0321F4807100F096F8B1
:10037000F3D100F097F8490800F11403490000F0A8
:100380008DF8F6D100F08EF800F1140321F0400151
:1003900000F084F8F6D1202050700021216300F095
:1003A0008FF8FCD1E06B00F009FB02206063A18DA7
:1003B000E08D091A30E0A08DE18D411AE08D002812
:1003C0001CBF88B2002868D0206800F10C0353E8F5
:1003D000003F00F10C0523F4907345E8003000283D
:1003E000F2D1206800F1140353E8003F5B0800F1EC
:1003F00014055B0045E800300028F2D12020507041
:100400000022226300F054F822F0100243E800209A
:100410000028F7D1022060632046BDE87C4089B205
:1004200000F07BBB180629D52E0627D51078212889
:1004300033D1A068B0F5805F04BF2069002808D1DF
:10044000206A0288C2F308024A60206A811C216285
:1004500004E0206A421C226200784860E08C401E62
:10046000E08480B2C8B92068C16821F08001C16011
:100470002068C16841F04001C16073BD58060CD5C9
:100480006B060AD5C86820F04000C86020211170B2
:100490002046BDE8764000F041BB73BD43E8001044
:1004A00000287047206800F1140151E8001F7047D0
:1004B000206800F10C0252E8002F00F10C03704795
:1004C000206800F10C0151E8001F00F10C0221F03E
:1004D000100142E800100028704781628285C285C1
:1004E00000214164222280F84220016921B1016883
:1004F000CA6842F48072CA6001684A6942F0010227
:100500004A610068C16841F02001C1600020704765
:10051000016801F10C0252E8002F01F10C0322F4F2
:10052000907243E800210029F2D1016801F1140220
:1005300052E8002F520801F11403520043E8002151
:100540000029F2D1016B01290CD1016801F10C02E3
:1005500052E8002F01F10C0322F0100243E80021C1
:100560000029F2D1202180F8421000220263704756
:1005700000000000406A0021C185C18400F0CCBAAF
:100580001CB590F84210222954D18168826AB1F5D5
:10059000805F0AD1016969B903685968C1F308012C
:1005A0001180826A911C81620FE0002904BF0169F9
:1005B000002902D10368596803E00168496801F025
:1005C0007F011170816A4A1C8262C18D491EC185FA
:1005D00089B269BB0168CA6822F02002CA6001685A
:1005E000CA6822F48072CA6001684A6952085200DF
:1005F0004A61202180F8421000224263016B0129E8
:1006000014D10263FFF701FE22F01002FFF7F9FD9B
:10061000F8D102681168CB0604D500240094FFF7D6
:10062000FCFD0099818D00F078FA01E000F0D8FB24
:10063000002016BD022016BD10B5044622681169BF
:10064000E06821F4405101431161D3681849A06862
:100650000B402169034360690B430343D360516935
:10066000A06921F440710143516112498A4202D1CB
:1006700000F059FE01E000F04EFE62681921484387
:100680009200B0FBF2F16423B1FBF3F203FB121111
:1006900009013231B1FBF3F000F0F00101EB02117E
:1006A000226800F00F004018906010BD00000000AC
:1006B000F3E9FFFF00380140DFF8CC0281B00168A8
:1006C00041F001010160026802F00102009200990C
:1006D000426842F080524260406800F080500090D2
:1006E0000098DFF8A802016821F0E06141F0007194
:1006F000016001B0704730B585B000F047F824685C
:10070000DFF88C52AC4218D19F48016841F4007167
:1007100001600323026802F400720092009900F065
:100720001FF90122006800F0040000900099019276
:10073000029301A9974800F03FFE05B030BD30B5E7
:1007400085B000F023F82468934DAC421CD18E4C48
:10075000206840F0080020601222216801F00801A2
:100760000091C02100988D480191029203210491CB
:1007700001A900F021FE606840F40010606060682C
:1007800000F400100090009805B030BD044601A8A8
:10079000102100F0FDBE78B585B0044668461021F2
:1007A00000F0F6FE21687E4A7E4D774891424FF474
:1007B00000664FF4806421D1416841F4002141601A
:1007C000416801F4002100F0BFF80222036803F041
:1007D0001003049328460499019203210391009485
:1007E00000F0BAF800F0AAF8284600F0E5FD002273
:1007F0000021342000F0EAFE34209BE06A4A914256
:100800002FD1416841F480114160416801F48011A9
:1008100000F09AF8036803F0100304930499026847
:1008200042F0200202604FF48051006800F0200086
:10083000049002220498009101920321039100F098
:100840008AF80420002100900191029169465748DE
:1008500000F0B2FD00220021352000F0B7FE352067
:1008600068E0534A4B4D91421CD1016841F48041EC
:100870000160026802F48042049200F070F84FF4C4
:10088000007100F072F80021019102910094694614
:10089000284600F091FD00220021252000F096FE60
:1008A000252047E0434A91421AD1416841F4003182
:1008B0004160416801F40031049100F050F80421D6
:1008C00000F053F80820002100900191029100F0FF
:1008D00042F800220021262000F078FE262029E0A0
:1008E000354A914228D1416841F4802141604168F4
:1008F00001F4802104910499026842F00802026028
:100900000222036803F0080304930499009403216E
:10091000039101926946214C204600F04DFD00F004
:100920000DF8204600F048FD00220021272000F0AD
:100930004DFE272000F067FE06B070BD002101913A
:10094000029100966946704704910499026842F04A
:100950001002026070472846694600F02DBD0499D8
:10096000026842F0040202607047006800F0040070
:1009700004900222049800910192032103912846D9
:10098000694600F019BD0000181002400400014043
:10099000002401400008014000540040000C0140C8
:1009A000004C004000100140005000400014014085
:1009B00000380140004400400048004010B590F865
:1009C0002110022900F1380206D00423136000210F
:1009D00080F82010012010BD01680B6823F00E0381
:1009E0000B60012301680C68640864000C60916866
:1009F00052688B405360012180F82110002280F85A
:100A00002020002010BDF8B590F821200024022AF3
:100A100000F1340103D00420486001245FE0026843
:100A2000DFF8C460136823F00E0313604FF480777F
:100A3000026815686D086D0015604FF48032036818
:100A4000B3424FF4805519D9DFF89860B34208BF1C
:100A5000012210D0DFF89460B34208BF10220AD000
:100A6000DFF88C60B34208BF3A4604D0DFF88470E8
:100A7000BB4208BF2A46DFF8803027E0DFF87CC0A1
:100A800063451CD0DFF878E073451AD0DFF874C0F6
:100A9000634518D0DFF87070BB420EBF2A46DFF8FE
:100AA0006C50AB4210D0DFF86870BB4208BF4FF407
:100AB000801209D0B34207D14FF0807204E00122C6
:100AC00002E0102200E03A46DFF848301A600122C6
:100AD00080F8212080F82040096801B1884720462D
:100AE000F2BD000008040240800002401C040240E5
:100AF0003004024044040240040402400800024062
:100B00001C000240300002404400024058000240F5
:100B10006C0002400400024070477047704730B4D8
:100B2000002513E050F8042BD30744BFA9F10103BB
:100B30009A18091F042942F8045BFAD213468C075D
:100B400044BF15809B1CC90748BF1D7050F8041B8B
:100B50000029E7D130BC70472DE9F84185B000F09D
:100B600067FD00F0FCF86846102100F011FDBC485C
:100B7000DFF8F0820168BC4DBC4E41F0100101600D
:100B8000026802F0100204920499026842F0200206
:100B90000260036803F0200304930499026842F0A2
:100BA00004020260036803F00403049304990268DA
:100BB00042F0080202600022006800F00800049081
:100BC0000F210498404600F0C1FC00224FF4407110
:100BD000284600F0BBFC4FF44040002100900191FA
:100BE00002914046694600F0E7FB0F2100F0AEF8A5
:100BF000404600F0E1FB4FF4407100F0A7F82846B2
:100C000000F0DAFB684600210022002380E80E0095
:100C10000020974D29734FF46021E961A860287581
:100C20006860012129612E60284600F013FD08B19B
:100C300000F039F9002001210090019102906946ED
:100C4000284600F08FFD08B100F02DF989488A4947
:100C5000286369630020A86300214FF48040286462
:100C6000E9636964A964E964296505F1300000F06D
:100C70002DFE08B100F017F9804E8148F0600C217C
:100C800000207061B061F0617062B0624FF4E137D2
:100C90003162376106F10C00FFF74AFA08B100F043
:100CA00002F905F184047748206067600021A160A3
:100CB000E16021610C206061A161E1612046FFF7E4
:100CC00037FA08B100F0EFF86F48A064E76400213C
:100CD00021656165A1650C20E0652166616605F10D
:100CE000CC00FFF725FA08B100F0DDF805F58A70B1
:100CF0006649016000220C218260C260026141618C
:100D00008261C2614760FFF713FA08B100F0CBF8C7
:100D1000524D5F48286000210C206861A960E9609D
:100D20002961A961E9616F602846FFF701FA08B1FE
:100D300000F0B9F801220121404600F007FC706D77
:100D4000311801222846FFF749FAF8E700910122FD
:100D5000019200210291022203926946704700B578
:100D600095B00BA8282100F013FC6846142100F070
:100D70000FFC05A8182100F00BFC4FF480314FF454
:100D800000320C910D92139101200B900F900222D2
:100D90004FF4E011129214910BA800F087F808B1FB
:100DA00000F081F8022101910F204FF48061009042
:100DB00000220391029204920221684600F006FA92
:100DC00008B100F070F802214FF40042059107923B
:100DD00005A800F023FE08B100F065F815B000BDCD
:100DE00000682B49884200D0704738B5294A234C07
:100DF0001168636DA06D194DC9B210BBAA2914D139
:100E0000E1545B1C63650122E1182846FFF7E6F90F
:100E1000A06D48B1606D401C606521182846BDE892
:100E200038400122FFF7DAB931BD052904BF207827
:100E3000AA2803D1E1540121A165EBE700206065F8
:100E400031BD082BE6DCE154E4D10A22214604F14D
:100E50000C00FFF7AAF90020A065F0E7C801002008
:100E60001810024000100140000C01400024014015
:100E70001000002000540040A08601006C010020FA
:100E8000004C004000500040003801400048004045
:100E900000440040044400400068B0F1804F08BFA7
:100EA00000F030BE704772B6FEE700002DE9F8434F
:100EB000040016D02078DFF8B864C10713D5706835
:100EC00000F00C00042807D0706800F00C0008281F
:100ED00040D17068C1033DD53068810303D5606897
:100EE000002800F0F4802078DFF89474810719D589
:100EF000706810F00C0F07D0706800F00C00082824
:100F000060D17068C1035DD43068810703D5206962
:100F1000012840F0DC803168606921F0F80141EA85
:100F2000C00131602178080770D5A069DFF854143A
:100F3000002865D001220A6000F0ECFD0546706AC9
:100F4000810700F1C68000F0E5FD401B0228F6D9BC
:100F5000032035E16068B0F5803F04D1306840F48B
:100F60008030306014E008B930680AE0B0F5A02F96
:100F7000306806D140F480203060316841F480311F
:100F800005E020F480303060316821F48021316048
:100F9000606858B100F0BEFD054630688103A2D4F8
:100FA00000F0B8FD401B6528F7D3D1E700F0B2FD93
:100FB00005463068810396D500F0ACFD401B6528DE
:100FC000F7D3C5E7206970B10121396000F0A2FDB7
:100FD00005463068810700F1B68000F09BFD401B9C
:100FE0000228F6D9B4E7386000F094FD0546316870
:100FF000880797D500F08EFD401B0228F7D9A7E798
:10100000086000F087FD0546706A810770D500F022
:1010100081FD401B0228F7D99AE708B9306A09E038
:101020000528306A06D140F004003062306A40F092
:10103000010005E0400840003062306A20F0040002
:10104000306241F28938E06868B100F063FD8146A2
:10105000306A810700F1848000F05CFDA0EB09009C
:101060004045F5D374E700F055FD8146306A8107AD
:1010700076D500F04FFDA0EB09004045F6D367E7B9
:1010800000F048FD401B02287BD961E700F042FDDB
:10109000001B022840F28F805AE700F093F80446C4
:1010A0003068810140F18B8000F034FD001B022884
:1010B000F6D94DE701280AD07068226A00F4803121
:1010C000914202BF00F47010616A884277D001201B
:1010D00076E0DFF8A0020168C9084FF47A72B1FB2C
:1010E000F2F2009200BF0098411E00280091F9D151
:1010F0002078410739D5F0690025C10009D4F0698D
:1011000040F08050F0610125F06900F080500090BF
:101110000098DFF87482D8F80000C1051BD4D8F815
:10112000000040F48070C8F8000000F0F3FC814635
:10113000D8F80000C1050ED400F0ECFCA0EB0900CB
:101140006528F5D304E73068616920F0F80040EACB
:10115000C1003060E6E6E06801287FF45EAF65E735
:101160001DB1F06920F08050F061E06938B371681A
:1011700001F00C0108299DD002288ED100F022F840
:101180000546306881013FF57BAF206AB0F5803FAE
:1011900005D17168A06821F4003101437160726863
:1011A000206A616A22F4741202430A4372600120C9
:1011B00000F009F80446306881017FF567AF002030
:1011C000BDE8F2830020386600F0A4BC2DE9F041B0
:1011D0000400884672D06D4E00F077F802D200F01D
:1011E0006FF86BD12068624D810712D5400703D597
:1011F000696841F4E06169602078010703D5686897
:1012000040F4605068606968A06821F0F001014313
:1012100069602178C80749D56068012802D129682A
:101220008A0303E00228296802D18A0102D445E03A
:101230008A0743D56968890840EA8100686000F040
:1012400069FC07466868616800F00C00B0EB810F2C
:101250002CD000F05FFCC01B41F289318842F1D3F1
:10126000032021E02078410705D56A68E06822F470
:10127000E06202436A602178080706D56968206940
:1012800021F4605141EAC001696000F023F86A6806
:101290003F49384BC2F30312895CC8401860374895
:1012A000006800F03DFC0020BDE8F081306800F0EF
:1012B00007008045D6D200F003F8D3D00120F3E731
:1012C0003168C90848EAC1013160306800F00700A0
:1012D000404570472F4930480A6802F00C03042B40
:1012E00000D1704710B5082B13D100BF2DA4C2F355
:1012F0008343D203E35C08D5096858432DA3C1F3A7
:1013000040415A5CB0FBF2F010BD184623494843F7
:1013100010BD194810BD17481E4A006813682049BF
:10132000C3F3022206E013481A4A006813681C49F6
:10133000C3F3C222895CC840704710B50F22026017
:10134000144A136803F003034360146804F0F004C4
:101350008460136803F4E063C3601268D20802F487
:10136000E06202610948026802F007020A6010BDEB
:10137000001002400C00002000127A00080000203B
:1013800000004242800442420070004000200240BF
:10139000B01F0008041002400024F40000093D00C2
:1013A000EC1F000802030405060708090A0B0C0DD0
:1013B0000E0F1010010200002DE9F8470027BE466D
:1013C000644A654B4FF00F0882460BE016683040C8
:1013D000106006E054604C68E403F7D510680643DB
:1013E00016607F1C0E6836FA07F000F0AD80012011
:1013F00000FA07F52E40AE42F3D1486858B30128F1
:101400001AD002281FD0032833D0112817D0122851
:101410001DD0524CA0421CBF514CA0421BD0514C7D
:10142000A0421CBF504CA04215D0504CA0421CBF43
:101430004F4CA0420FD01EE0D1F80CE01BE0C86872
:1014400000F1040E17E0C86800F1080E13E0C86848
:1014500000F10C0E0FE0886810B94FF0040E0AE09E
:1014600001284FF0080E14BFCAF81450CAF81050E3
:1014700001E04FF0000EB6F5807F03D250464FEAF0
:10148000870C05E0A7F108040AF104004FEA840C78
:10149000046808FA0CF5AC430EFA0CF52C43046012
:1014A0004868C0009DD51868DFF8C8C040F001004A
:1014B00018601C6804F001040094BC000098B8088F
:1014C0005CF8205004F00C0408FA04F925EA090934
:1014D000294DAA4508BF002518D0284DAA4508BFA8
:1014E000012513D0264DAA4508BF02250ED0254D53
:1014F000AA4508BF032509D0234DAA4508BF0425E6
:1015000004D0224DAA450CBF0525062505FA04F492
:1015100044EA09044CF82040F0434C68E402946823
:101520004CBF3443044094604C68A402D4684CBF60
:1015300034430440D4604C685568A4034CBF46EA69
:10154000050400EA050445E7BDE8F18702B909048E
:1015500001617047000401401810024000001110A2
:1015600000001210000021100000221000003110B5
:10157000000032100800014000080140000C01404A
:10158000001001400014014000180140001C0140FF
:10159000002200F011BB00000901020002D41F4824
:1015A000815470471E4B02F00F021A4402F8041CCB
:1015B00070471C4B19684FF6FF020002114000F4FF
:1015C000E0600843184908431860704738B5154B68
:1015D0001C68C4F30223C3F10704052C28BF0424AC
:1015E0001D1D072D34BF0023DB1E012505FA04F461
:1015F000641E2140994005FA03F35B1E1A40114313
:10160000BDE83440C8E7010007D4012200F01F0103
:10161000064B8A40400943F82020704700E400E070
:1016200018ED00E00CED00E00000FA0500E100E03C
:1016300080B50748016841F0100101600320FFF701
:10164000B8FF0F2000F06CFAFFF736F8002002BD5B
:1016500000200240F8B5044600270026002C7AD06E
:1016600004F12405686820B9AE6028702046FFF7B1
:1016700042F8204600F002F96968CA066CD40100FD
:101680006AD1696821F4885141F0020169602368D8
:10169000DFF8CC11E269D4F804C08B4204BFB2F584
:1016A000402F4FF40022217B42EA0C02D4F808C0FC
:1016B000BCF5807F14BFBCF1010F4FF4807794F824
:1016C00014C0BCF1010F42EA41020FD131B9A16946
:1016D000491E490341F400610F4307E0696841F086
:1016E00020016960A96841F00101A960596821F4ED
:1016F00069410F435F602368DFF868119F680F40FE
:1017000017439F60A168B1F5807F18BF012902D1FE
:101710002669761E36052168CB6A23F470031E43C2
:10172000CE622468DFF84011A3680B40934208D1D1
:101730000022AA60696821F0020141F0010169609C
:10174000F2BD686820F0020040F010006860A868F0
:1017500040F00100A86003E0686840F01000686095
:101760000120F2BDF8B50A46002100F124030091E2
:101770001C78012C01D10220F2BD01241C701F270E
:10178000546815680668072C08D2641E04EB8404AC
:10179000D6F834C000F05EF8756312E00D2C08D264
:1017A000E41F04EB8404D6F830C000F053F835632E
:1017B00007E00D3C04EB8404D6F82CC000F04AF896
:1017C000F56207271668946805680A2E08D30A3E52
:1017D00006EB4606D5F80CC000F036F8EC6006E0E3
:1017E00006EB4606D5F810C000F02EF82C61146800
:1017F000102C18BF112C23D100681D4CA0421AD107
:101800001C4805682C021BD4056845F400050560DA
:101810001068102814D1154A174D1468B4FBF5F55B
:101820000A2045430095009800281EBF0098401EDE
:101830000090F8D104E00121586840F02000586081
:10184000002018700846F2BDB7402CEA0707B440E4
:101850003C437047A7402CEA0707A5403D4370472B
:10186000003C0140FDF7E1FFFE0E1FFF0C000020D1
:10187000002401400824014040420F0038B50446CE
:1018800020688168CA071BD58168490849008160C2
:1018900000F040F9054600F015F811D500F03AF9CE
:1018A000401B0328F7D300F00DF8F4D5A16A41F0EE
:1018B0001001A162E06A40F00100E062012032BD47
:1018C000002032BD20688168C8077047F8B5040061
:1018D00025D004F13C05697821B900202870204604
:1018E000FEF72DFF2421697020680268520852001B
:1018F00002602068016841F40041016020680268CC
:1019000022F400420260FFF706FD01466068DFF83E
:10191000F420904205D2DFF8F030994205D2012040
:10192000F2BDDFF8E8008142F9D32068DFF8E0304B
:101930004668B1FBF3F3B60943EA861646602668AB
:10194000376A6068904206D34FF4967043434FF471
:101950007A70B3FBF0F35B1CBF0943EA8713336271
:10196000491E2368DE696768974206D27F0000F04F
:1019700043F8042913D2042111E0A06820B907EB31
:10198000470700F039F805E01920474300F034F824
:1019900041F4804108050CBF012141F40041DFF80A
:1019A000740006400E43DE6122681368E169206A14
:1019B00023F0C0030B43034313602268DFF8580091
:1019C000936821690340E0680B43034393602168F7
:1019D000CA68A3696069120A034343EA0222CA6023
:1019E0002068016841F00101016000206860202149
:1019F00069702063A870F2BDB1FBF7F1491CC1F317
:101A00000B017047A186010080841E0000093D0083
:101A100040420F000030FFFF007CFFFF2DE9FC413A
:101A20000646354D3078C10750D5A8690024C1005D
:101A300009D4A86940F08050A8610124A86900F089
:101A40008050009000982D4F3868C10519D438682F
:101A500040F48070386000F05DF880463868C10559
:101A60000FD400F057F8A0EB08006528F6D3032048
:101A70003FE000F04FF8C01B41F28931884217D394
:101A8000F5E7E86910F440701EBF716801F4407119
:101A9000884210D01A49E86901220A60002320F424
:101AA00040700B60E861C00705D500F033F80746C9
:101AB000E8698107DDD5EA69706822F44072024363
:101AC000EA611CB1A86920F08050A86130788107D4
:101AD00005D52A68B06822F4404202432A60317872
:101AE000C80605D52968706921F480010143296081
:101AF0000020BDE8F68100000410024000700040A4
:101B00004004424202494A68087882184A60704795
:101B10000000002001484068704700BF000000201E
:101B200078B50446204887B0016841F001010160A2
:101B300001A9006800F00100009002A8009AFFF7D8
:101B4000FCFB059810B9FFF7E6FB02E0FFF7E3FBAB
:101B50004000164D164B4FF080412960B0FBF3F06A
:101B6000401E40F2E73268600021EA602961A96006
:101B7000A961284600F03AF8060012D1284600F084
:101B800042F806000DD11C20FFF73DFD102C07D2B6
:101B9000002221461C20FFF719FD0648046000E0E2
:101BA0000126304608B070BD1C1002401002002013
:101BB00040420F000800002000B500BF1300964609
:101BC0009446103928BFA0E80C50FAD85FEA417C4F
:101BD00028BF0CC048BF40F8042BC90728BF20F815
:101BE000022B48BF00F8012B00BD000038B50400EF
:101BF00001D1012032BD00F059F818B900F0FEF80B
:101C000000F044F935E090F83D10012901D00120A1
:101C10007047022180F83D100168CA6842F0010255
:101C2000CA600068DFF8701088421CBFDFF86C20C3
:101C300090420ED0B0F1804F1CBFDFF86410884294
:101C400007D0DFF8602090421CBFDFF85C108842AC
:101C500009D1816801F00701062908D0016841F027
:101C60000101016003E0026842F00102026000200D
:101C7000704702206870211D206800F0C3F8012021
:101C8000A872A870E87028716871A871E87128724C
:101C900068726870002032BD002C014000340140A1
:101CA0000004004000080040000C004004F13C0526
:101CB0006878704710B50446206801698A0715D511
:101CC000C1688A0712D56FF00201016101222277F3
:101CD000806910F0030F204602D000F0D8F803E02E
:101CE00000F0D6F800F087F800202077206801691E
:101CF0004A0715D5C1684A0712D56FF00401016182
:101D000002222277806910F4407F204602D000F042
:101D1000BEF803E000F0BCF800F06DF8002020777A
:101D2000206801690A0715D5C1680A0712D56FF046
:101D30000801016104222277C06910F0030F2046D8
:101D400002D000F0A4F803E000F0A2F800F053F88D
:101D50000020207720680169CA0615D5C168CA0627
:101D600012D56FF01001016108222277C06910F4CA
:101D7000407F204602D000F08AF803E000F088F8A7
:101D800000F039F80020207720680169CA0708D5DB
:101D9000C168CA0705D56FF0010101612046FFF750
:101DA0007BF8206801690A0608D5C1680A0605D5CE
:101DB0006FF080010161204600F06BF82068016936
:101DC0004A0608D5C1684A0605D56FF04001016191
:101DD000204600F05FF8206801698A060AD5C168CC
:101DE0008A0607D56FF0200101612046BDE810404A
:101DF00000F051B810BD204600F04EB80021297007
:101E000020467047F0B5DFF870C01C4F03681C4CCB
:101E10001C4D1D4E604518BFB84208D0B0F1804F30
:101E200018BFB04203D0A84218BFA0420DD14A68E3
:101E300023F070031343604518BFB84207D0B0F1D8
:101E4000804F1CBFB042A84201D0A04203D1CA6853
:101E500023F4407313434A6923F080031343036060
:101E600060458B68C3620A68826212BFB842096922
:101E7000016301224261F0BD002C014000340140A9
:101E8000000C00400008004000040040704770470C
:101E9000704770477047704770470000FEE7FEE7E5
:101EA000FEE7FEE7FEE77047704770477047094856
:101EB000FFF700BF0848FEF7C2B90848FEF7BFB9F0
:101EC0000748FEF7BCB90748FEF7B9B90648FEF760
:101ED000B6B9000010020020DC000020C80100207C
:101EE00024010020780100209400002030B450F834
:101EF000041B79B10268436802440830DC0744BF20
:101F0000A9F10104E31852F8045B43F8045B091FCC
:101F1000F9D1ECE730BC704710B507497944183166
:101F2000064C7C44163404E00A68081D11448847B6
:101F30000146A142F8D110BD0800000028000000B1
:101F4000DFEBFFFF4802000010000020000000004F
:101F50009DFFFFFF1000000078000000000000203F
:101F60000000000000F00DF8002801D0FFF7D4FFBA
:101F7000AFF300800020AFF30080FEF7EDFD00F02E
:101F800002F80120704700F001B80000074638460B
:101F900000F002F8FBE7000080B5AFF30080024AD2
:101FA00011001820ABBEFBE72600020070470000BE
:101FB00000000000000000000102030406070809F9
:101FC0000148804701480047AD1F0008E11F000895
:101FD0000100000000000000100000000024F400D8
:101FE000AFF30080AFF30080FFF7BCFF00000000FC
:101FF00001020304FFF7FEBFFFF7FEBFFFF7FEBFBE
:10200000FFF7FEBFFFF7FEBFFFF7FEBFFFF7FEBF04
:10201000FFF7FEBFFFF7FEBFFFF7FEBFFFF7FEBFF4
:10202000FFF7FEBFFFF7FEBFFFF7FEBFFFF7FEBFE4
:10203000FFF7FEBFFFF7FEBFFFF7FEBFFFF7FEBFD4
:10204000FFF7FEBFFFF7FEBFFFF7FEBFFFF7FEBFC4
:10205000FFF7FEBFFFF7FEBFFFF7FEBFFFF7FEBFB4
:10206000FFF7FEBFFFF7FEBFFFF7FEBFFFF7FEBFA4
:10207000FFF7FEBFFFF7FEBFFFF7FEBFFFF7FEBF94
:10208000FFF7FEBFFFF7FEBFFFF7FEBFFFF7FEBF84
:10209000FFF7FEBFFFF7FEBFFFF7FEBFFFF7FEBF74
:1020A000FFF7FEBFFFF7FEBFFFF7FEBFFFF7FEBF64
:1020B000FFF7FEBFFFF7FEBFFFF7FEBFFFF7FEBF54
:0C20C000FFF7FEBFFFF7FEBFFFF7FEBFFB
:0400000508001FE1EF
:00000001FF
