:020000040800F2
:1000000030070020F93C0008C13B0008C33B000852
:10001000C53B0008C73B0008C93B000800000000C2
:10002000000000000000000000000000CB3B0008C2
:10003000CD3B000800000000CF3B0008D13B00088A
:10004000213D0008253D0008293D00082D3D000800
:10005000313D0008353D0008393D00083D3D0008B0
:10006000413D0008453D0008493D00084D3D000860
:10007000513D0008553D0008593D00085D3D000810
:10008000613D0008653D0008693D00086D3D0008C0
:10009000713D0008753D0008793D00087D3D000870
:1000A000813D0008853D0008893D00088D3D000820
:1000B000D33B0008913D0008953D0008993D00089C
:1000C0009D3D0008A13D0008A53D0008A93D000890
:1000D000AD3D0008D93B0008DF3B0008E53B0008C8
:1000E000B13D0008B53D0008B93D0008BD3D000820
:1000F000C13D0008C53D0008C93D0008CD3D0008D0
:10010000D13D0008D53D0008D93D0008DD3D00087F
:10011000EB3B0008F13B0008E13D0008E53D00082D
:10012000E93D0008ED3D0008F13D0008F53D0008FF
:100130002DE9F0439FB000BF65A6269CDFF8B48A86
:100140008DF83B40029100240B944FF0FF3704469A
:1001500091461D460AE019F8011B0298A0470028A5
:10016000029000F0A1800B98401C0B9099F80000C1
:1001700050B12528EFD10021002205910692079168
:10018000089209910A9203E00B98A5E041F0010161
:1001900019F8010F2028F9D023280CD02B2804D0DF
:1001A0002D2805D0302809D080E041F00201EFE78A
:1001B00041F00401ECE741F00801E9E741F01001EA
:1001C000E6E70D920AE00D98404505DA00EB800065
:1001D00002EB4002303A0D9209F1010999F8002032
:1001E000A2F130000A28EED399F800002E2818BF9B
:1001F0000C9726D119F8010F2A2808D12868286001
:1002000009F1010950F8042B28600C9219E02D28FF
:100210000CBF09F10109002000220C920BE040B94B
:100220000C9A424505DA02EB820203EB4203303BB3
:100230000C9309F1010999F80030A3F130020A2A60
:10024000EDD3ADF83810304699F8001000F086FE76
:1002500008B119F8010B8DF83A009DF83A006828AA
:1002600005D199F8000068280CD1622106E06C28BD
:1002700004BF99F800006C2804D171218DF83A1060
:1002800009F1010910A804902A4619F8013B6946B2
:10029000204600F061F838B910AA6946204600F0FF
:1002A0008FF900287FF562AF384615E02A2888D1FB
:1002B0002A682A6052F8040B2A6000280D9003D5A2
:1002C00040420D9041F0040109F101098CE7000062
:1002D000686A6C747A4C00001FB0BDE8F083622835
:1002E00020D0682811D06A2803D06C2827D0712824
:1002F00025D10868C01D20F007000860D0E9002360
:1003000008300860194610467047002A0A680A60DB
:10031000106803D0121D0A6000B217E0121D0A60B7
:1003200080B217E0002A0A680A60106803D0121D24
:100330000A6040B20AE0121D0A60C0B20AE0002A58
:100340000A680A60106803D0121D0A60C11770475E
:10035000121D0A600021704770B51C460D46B4F1AD
:1003600025002E69114600F019811C3868D0001F45
:10037000022865D9133842D0093861D0801E16D0C2
:10038000401E1ED0401E02285AD9001F19D0401FFF
:1003900000F08180401E32D0401E00F0CB80C01E95
:1003A00000F0DA80801E2AD0C01E28D0FCE06869E8
:1003B000421C6A610A680A6052F8043B0A603354BE
:1003C000FCE095F83A000122FFF789FFC5E900013A
:1003D000002904D56869411C69612D220DE0288F30
:1003E000810704D56869411C69612B2205E0C007BB
:1003F00021D56869411C6961202232541BE095F8BF
:100400003A000022FFF76BFFC5E9000195F83800BC
:10041000010710D5D5E90023002B08BF002A0AD018
:1004200044F02000782806D1686930213154401CFE
:10043000421C6A613454214668693044E86087E0B0
:100440000868C01D20F007000860D0E900230830CC
:100450000860C5E90023D5E90001C80F04D0686928
:10046000411C69612D220DE0288F810704D5686940
:10047000411C69612B2205E0C00704D56869411C55
:1004800069612022325468693044E8602146284678
:1004900000F0C4F992E005F13A02507820B14FF033
:1004A000FF340FF6202062E01078622808D0682818
:1004B00024D06A2812D06C282ED071280ED02BE0C0
:1004C0000A680A6052F8040B0A6020B94FF0FF3442
:1004D0000FF608204BE0E96A01706FE00A680A60D5
:1004E00052F8040B0A6020B94FF0FF340FF6EC10FD
:1004F0003DE0EA6AD317C0E900235FE00A680A60BA
:1005000052F8040B0A6020B94FF0FF340FF6CC10FC
:100510002DE0E96A018051E00A680A6052F8040B94
:100520000A6020B94FF0FF340FF6B0101FE0E96AFF
:10053000016043E00A680A6052F8040B0A60002177
:1005400020F0000221F0FF33C5E90023EE6078219E
:10055000284600F0BBF831E00868086050F8044B0A
:100560000860EC603CB94FF0FF340FF6881000F0E3
:1005700001FD201A70BD2E6B002E04D5204600F020
:1005800019FD044608E032460021204600F02EFD09
:10059000002814BF041B3446AC610FE06869411C9D
:1005A00069612522325409E06969481C6861252285
:1005B0007254210002D0431C6B613454002070BD82
:1005C0002DE9FC410F46064690467A6B7869396AF8
:1005D000BC6A121AB869521A796A121AF869521A60
:1005E000121A97F83800141B41070FD42020002C52
:1005F0008DF800000ADD254601236A46394630465B
:1006000000F048FC00285DD16D1EF5D17B694246A3
:100610003946304600F03EFC002853D130208DF89A
:1006200000003D6A002D09DD01236A463946304647
:1006300000F030FC002845D16D1EF5D1BB69FA6889
:100640003946304600F026FC00283BD130208DF89A
:1006500000007D6A002D08DD01236A4639463046D8
:1006600000F018FC70BB6D1EF6D1F868B969FB6923
:1006700042183946304600F00DFC18BB30208DF88A
:100680000000BD6A002D08DD01236A463946304668
:1006900000F000FCB0B96D1EF6D197F838004107A4
:1006A0000DD52020002C8DF8000008DD01236A46BE
:1006B0003946304600F0EEFB20B9641EF6D100202A
:1006C000BDE8F6814FF0FF30BDE8F6812DE9FC432F
:1006D00007466F293E6908BF082405D041F0200075
:1006E000782814BF0A2410243C25D7E90023642964
:1006F00018BF69299046994605D1002B03D5D8F13A
:10070000000869EB4909B9F1000F08BFB8F1000F03
:100710001FD1386BE8B9082C4CD197F83800010785
:1007200048D530203B2586F83B0043E000280ED515
:1007300097F8380000F01400102808D17B6B796915
:10074000386A5B1A1B1A9A1A002AC8BF3A62BDE8B7
:10075000F3838DF80010404649462246E31700F027
:1007600071FC3032D0B26D1E3A28019504DB9DF841
:100770000000A0F151018A187255404649462246B0
:10078000E31700F05FFC80465FEA010908BFB8F19B
:10079000000F03D0F86871198842DCD3082C09D106
:1007A00097F83800010705D5705D302802D06D1E1E
:1007B00030207055C5F13C02BA617119F960386B8F
:1007C0008242B3DA821A3A624FF6EF70398F0140F3
:1007D0003987BDE8F3832DE9D04306460F4614461A
:1007E0004FF00008DFF8109412E0E00707D542460A
:1007F0004B463046394600F03DFD06460F46404622
:10080000494642464B4600F035FD64108046894615
:10081000002CEAD130463946BDE8D0832DE9F84FA7
:1008200005468A464AF020048EB0D5E90089612C3D
:1008300002AE09D0286B002848BF062003D408BFA9
:10084000672C01D101202863D5E900014A00521527
:10085000521C0DD10B030BD0AAF1610103201A2900
:10086000A86102D20FF2A86110E00FF2A8610DE0BA
:100870004A005215521C0ED10B030CD1AAF1610192
:1008800003201A29A86116D30FF29061E8680322A9
:1008900000F0C2FDC0E1CDE90C01DDE90C2323F03D
:1008A0000043B3F5801F0DD20027002B08BF002A9C
:1008B000019703D111E00FF26061E7E701AA00F0B0
:1008C000FFFD0AE0CD48CE4900EB1350DDE90C23D3
:1008D00001900B40CB4910461943C5E90001612C3A
:1008E0000DD1E86830210170821CBAF1610FEA6015
:1008F0000CBF7821582141706869801C6861D5E976
:100900000001CDE90C01DDE90C2333F0004104BF07
:100910000028002300F04881612C40F0A080286B63
:10092000494600284CBF4FF0210B00F1010B404617
:1009300000220023DDE90C8900F0FAFD01990BF19A
:10094000010738BF89F00049091F002F01918DF878
:1009500008200DF1090040F33581A94900910646B0
:10096000404649460022002300F0FAFD80F029812C
:100970004800400D00F11C0211D0002A0FDD40F2AA
:10098000FF739A4205DBA04909F0004001430020B3
:1009900011E0009B194041EA025140460BE028F06B
:1009A000000039F0004108BF00280FBF49461C2253
:1009B000494600F0EDFD8046894600F087FEFF1FA6
:1009C000002F044609DD00F09FFE02460B4640461C
:1009D000494600F0ABFE80468946F01D072104E041
:1009E00004F00F0200F8012D2411002C01DD491E36
:1009F000F6D5491E5CBF002200F8012DF9D5DCE0D8
:100A00000020194602AA0A4400E05B1E12F80149C0
:100A1000491E8442F9D00F2804D10DF10900425C2F
:100A2000521C4254002904D50198001D02AE5B1CE3
:100A30000190581E0CD43118AAF13A040A783032C9
:100A4000D7B23A2FA8BFA218401E01F80129F5D548
:100A5000286B002840F1A780591E2963A3E0019963
:100A60006A4A47F29750414391FBF2F2019229F012
:100A70000046D2F1070204DD40463146FFF7ABFEE7
:100A80000AE0524200206249FFF7A5FE02460B46EB
:100A90004046314600F0BCFE8046662C286B06BFFF
:100AA000019F0A3706273F18142FC8BF142730208C
:100AB0008DF8080089460DF1090000E03046002F4E
:100AC00034DD06464046494600F0C6FF01460A4668
:100AD00006F1080304200A26B2FBF6F606EB860EA2
:100AE000A2EB4E02303203F8012C0A22B6FBF2F2DE
:100AF00002EB820EA6EB4E063036401E03F8026D66
:100B0000E9D1083F002F03F10806D7DD084600F0C1
:100B1000B7FF02460B464046494600F007FE00225A
:100B20003C4B00F0A7FB80468946CBE70DF109015D
:100B3000401A0DF1090604E00199491E401E019179
:100B4000761C31783029F7D0662C02D10199491CE6
:100B500003E0652C0CBF012100212B6BCB189842C0
:100B6000B8BF431E002B1ED4834204DAF05C352844
:100B7000A8BF392000DA30201946721E02EB0108A6
:100B800000E05B1E18F80199491E8145F9D039280B
:100B900002D1705C401C7054002904D50198401C9F
:100BA00016465B1C0190019800B200901BB23246C1
:100BB0005146284600F034F82EE0C61D002F3FF7BE
:100BC000CFAE30460DF10901401A03465845C8BF63
:100BD0005B46002B0DF109063FF53AAF8342BFF6A5
:100BE0000FAF0DF10900C15C07297FF709AF0F2096
:100BF00007E70000CBCCCC0C0000244002FCFFFF38
:100C0000FFFF0F800000E03F0000F07FA0860100A2
:100C10000000F03F84D797410FB0BDE8F08F00008F
:100C20002DE9F84783B006468A461746984600F0F5
:100C300035FFB8F1000F406A356B90F8009002DC88
:100C40004FF00108B6A74AF02000BDF930406628F1
:100C500008BF641C15D0672840F0848014F1040F8D
:100C6000C0F28680AC4280F2838096F83800641C23
:100C7000010702D4A845B8BF454620B22D1A48BF87
:100C800000250FFA84FAF068B169BAF1000F25DC8B
:100C90004A1C30234354002D03DC96F8380001072A
:100CA00003D5F06800F80290521C15EB0A0FB8BF8C
:100CB0006C4220B2441941424445B8BFA046B261DB
:100CC00071620FFA88F5F561F068B3692A46394612
:100CD000184400F0A1FB641BB462C4E022B290454A
:100CE000084417DA4246394600F096FBB0694044A2
:100CF000B061AAEB0801002D716203DC96F8381090
:100D00000A0705D5F16801F80090F069401CF06110
:100D1000B562A8E0394600F07FFBB069002D504471
:100D2000A8EB040803DC96F838100A0703D5F1682D
:100D300001F80090401CB0610FFA88F08542F3681A
:100D4000B069B8BFA8460FFA88F207EB0A01184449
:100D500000F062FBB1690FFA88F00144B161281A12
:100D6000706280E0BAF1610F14D14FF0700A16E0A2
:100D7000A84504DA96F838100A0758BF45466D1E94
:100D800048BF0025BAF1670F14BF4FF0450A4FF076
:100D9000650A04E0BAF1410F08BF4FF0500AB1698B
:100DA000F368481CB061002D17F8012B5A5403DC7E
:100DB00096F838100A071BD5F168431CB36101F897
:100DC0000090002D14DDA8F101080FFA88F03946D3
:100DD0008542F768B8BFA8460FFA88F2F81800F005
:100DE0001BFBB0690FFA88F108446D1AB061756297
:100DF000F068B1690844002C80F800A003D42B22CD
:100E00004270811C03E02D2141706442811C00204E
:100E10006A460AE023460A2493FBF4F404EB8405B3
:100E2000A3EB450302F8013B401C24B2002CF1DC8B
:100E3000012806DC4AF02002652A04BF302201F8AE
:100E4000012B48B9302001F8010B07E0401E1DF8C6
:100E50000030303301F8013B0028F7DCF268B0695C
:100E60001044091AF16196F8380000F014001028B7
:100E70000DD17269B169706A8A18F1698218B06A15
:100E80008A188218706B8242BCBF821A326204B028
:100E9000BDE8F087F8B505460E4617461C4600200B
:100EA00074B117F8011BB068A847B06030B1F06AA0
:100EB000401CF0620020641EF3D1F2BD4FF0FF3001
:100EC000F2BD00007072696E74665F733A20256E21
:100ED00020646973616C6C6F776564007072696E11
:100EE00074663A2062616420256E20617267756DB8
:100EF000656E74007072696E74665F733A20626129
:100F00006420257320617267756D656E7400000042
:100F10006E616E004E414E00696E6600494E46009D
:100F2000300030B4002513E050F8042BD30744BF41
:100F3000A9F101039A18091F042942F8045BFAD2A7
:100F400013468C0744BF15809B1CC90748BF1D7002
:100F500050F8041B0029E7D130BC7047C9B20278B1
:100F60008A421AB11CBF10F8012FF9E718BF002000
:100F70007047000080B500B906A005490B681BB199
:100F800022220021984701E000F08CFD222002BDC2
:100F900028030020636F6E73747261696E74206839
:100FA000616E646C65723A20626164206D65737372
:100FB0006167650000F10103810704D010F8011B8F
:100FC000820781B1FAD10268A2F10131914311F097
:100FD000803104BF50F8042FF6E709BAB1FA81F165
:100FE00000EBD100401CC01A70470000C9B2830753
:100FF00006D0521E22D310F8013B9942F7D11FE0D0
:10100000083A13D302F1040241EA012141EA014105
:1010100050F8043B121F21BF4B40A3F1013C2CEAC6
:10102000030C1CF0803FF3D0C9B2001F083210F847
:10103000013B521E28BF91EA030FF8D818BF0120C8
:10104000401E7047BBBBE1B1B2F5803F80F07E80AF
:10105000022A1ED98C46B1FBF2F102FB11C31B041C
:1010600043EA1043B3FBF2FC02FB1C3380B240EABC
:101070000343B3FBF2F002FB103240EA0C400023C2
:101080007047022A05D98446B0FBF2F002FB10C279
:1010900070474AB105D100F0010249085FEA30000B
:1010A000704700220023704700F000BD0B000200D3
:1010B000002100207047904271EB030CF6D3B3F58A
:1010C000803F2FD2F0B5B3FA83F7B1FA81F4A7F1DC
:1010D0000F0E3D1B5340CEF1200602FA0EF2F341F3
:1010E0005340B5F10F0746D80F3C2C444140C4F1A2
:1010F0002006A040F1414140B1FBF3F603FB16117D
:10110000A2FB0645001BA94102D2761E8018594158
:1011100080EA010221FA0EF362FA0EF200215A402F
:101120003046F0BD30B4B1FBF3FC03FB1C11A2FB55
:101130000C45001BA94103D2ACF1010C80185941A8
:1011400030BC02460B46604600217047B2F1807FFA
:1011500065D3F0B5B2FA82F7B1FA81F4C7F10F06A0
:101160003D1B22FA06F307F1110EF24120355A40D9
:10117000B5F10F07B8D94140C4F12006A040F141B4
:101180004140B1FBF3FC03FB1C11A2FB0C45001B0F
:10119000A94103D2BCF1010C801859410F2F12D381
:1011A0000F3FC90341EA5041B1FBF3F603FB1611AF
:1011B000A2FB0645D4EBC030A94102D2761E8018AE
:1011C000594146EACC3C07B34140C7F12006B8403C
:1011D000F1414140B1FBF3F603FB1611A2FB0645BA
:1011E000001BA94102D2761E8018594180EA0102F3
:1011F00021FA0EF3C7F1200462FA0EF20CFA07F09E
:101200005A402CFA04F13043F0BD80EA010221FA81
:101210000EF3002162FA0EF260465A40F0BD8C4691
:10122000B1FBF2F102FB11C31B0243EA1063B3FBF3
:10123000F2FC02FB1C331B024CEA002043EA106361
:10124000B3FBF2FC02FB1C331B024CEA002043EA16
:101250001063B3FBF2FC02FB1C331B024CEA0020C0
:1012600043EA1063B3FBF2FC02FB1C324CEA0020A1
:1012700000237047B0B581EA030C0CF0004C40F23B
:10128000FF7515EA11541DBF15EA1357AC42AF4262
:1012900039E0E41923EA455343F48013C90241F0CD
:1012A000004141EA505EC7021100A7FB020200287C
:1012B0004FF00000EEFB01204FF00001E3FB07219F
:1012C00018BF42F00102401800214941E3FB0E0122
:1012D000A4F580640F0302D252004041494154F109
:1012E00001046CDD470872F1004250F1000051EB3F
:1012F0000451A1F580115CBF41EA0C01B0BD4CEA7C
:1013000005510020B0BD05EA1357AC4214BFAF42EF
:1013100041E050EA410E1CBF52EA430E02E0614632
:101320000020B0BD24423C441BD15FEA070EF6D03A
:10133000090302BF01460020AEF1140EB1FA81F795
:10134000AEEB070401FA07FE0C37C7F1200100FAE3
:1013500007F7C8404EEA000E23EA455343F48013D2
:10136000A2E733F00043B3FA83F704BFB2FA82FE78
:1013700077440B3FE41BB7F1200E2FBF02FA0EF3A8
:10138000BB40C7F1200E22FA0EFE38BF43EA0E031F
:10139000BA40641C82E750EA410E14BF52EA430E81
:1013A0006FF000014FF4001717EB430F8ABF194687
:1013B00017EB410FB5E74CEA05510020B0BDD4F161
:1013C0000104B4F120070FDAC4F12007520828BF46
:1013D00042F0010210FA07F501FA07F7E1BF2A43CC
:1013E000E0403843E1400FE0352C98DCC7F12004A1
:1013F00052EA400220FA07F218BF42F0010231FA25
:1014000007F0A1400A43002172F1004250F10000B0
:1014100051EB0C01B0BD000062B38B0708D0521E27
:1014200011F8013B00F8013B00F024808B07F6D156
:10143000830740F0208000BF103A07D330B4B1E8F2
:101440003810103AA0E83810F9D230BC530724BF46
:10145000B1E80810A0E8081044BF51F8043B40F878
:10146000043BD20724BF31F8022B20F8022B44BFE3
:101470000B7803707047121F17D35B0009D151F826
:10148000043B20F8023B1B0C121F20F8023BF6D253
:101490000BE051F8043B00F8013B1B0A20F8023B2B
:1014A0001B0C121F00F8013BF3D238BF121D521E55
:1014B00024BF11F8013B00F8013BF8D87047000049
:1014C00010B5144600F002F8226010BDC1F30A53B3
:1014D00043B14A0012F5001F28D2A3F2FE32A1EB5D
:1014E0000251704750EA410C20D001F0004C31EA23
:1014F0000C01B1FA81F204BFB0FA80F3D2180B3AB2
:10150000B2F120032CBF00FA03F1914041EA0C0133
:101510003EBFC2F1200C20FA0CF319439040524216
:1015200040F2FD33D21A01EB03517047002270479D
:101530004FF4001C1CEB410F94BF1CEB430F09E060
:1015400041EA030C50EA4C0C52EA0C0C03D29942CB
:1015500008BF9042704714BF8B4282427047000020
:101560004FF4001C1CEB410F94BF1CEB430F09E030
:1015700041EA030C50EA4C0C52EA0C0C03D28B42A9
:1015800008BF8242704714BF9942904270470000E2
:10159000124254D440F2FF7C1CEA11530FD0634531
:1015A00031D09B1863453CBF01EB0251704701F0FD
:1015B000004141EA0C510020AFF30080704750EA2F
:1015C000410320D001F0004C91EA0C011CD0B1FA8B
:1015D00081F30B3B9A420DD9D21A994051EA0C0182
:1015E000C3F1200C20FA0CFC61449840531C40F2DB
:1015F000FF7CD7E7914041EA0C01C2F1200C20FAB0
:101600000CF3194390407047B0FA80F31533202B48
:10161000E0D3202AEED3203A203B9A4209D9D21AAD
:1016200000FA03F141EA0C010020531C40F2FF7C58
:10163000B8E700FA02F141EA0C010020704752427B
:1016400040F2FF7C1CEA11530DD06345DBD0B2EBB6
:10165000030C3CBFA1EB025170470CF1010221EADF
:10166000035141F4801150EA410CCCD001F0004C00
:10167000352A27DC30B481EA0C01B2F1200309DA03
:10168000C2F12003044601FA03F5D0402843D140BB
:101690009C400CE0C3F12002450020FA03F418BF7F
:1016A00044F0010421FA03F091400C43002174F14D
:1016B000004550F1000051EB0C01244230BC7FF496
:1016C0007BAF70476146002076E70000C1F30A5304
:1016D00040F2FE329B1A14DDD3F120034FEAE1728F
:1016E00008DDC90241EA505141F00040D84080185D
:1016F0005040704703F2E13010B1D24382F0004015
:101700007047002070470000C11768B14840401A78
:10171000B0FA80F29040D21CC907C2F5846241EA57
:10172000025202EBD02140057047000070B44FF028
:10173000004591EA030F40F1BB816B40841A71EBC5
:10174000030603D2001BB141121973414FF4001C70
:101750001CEB410F34BF7CEB430442E00C0DA4EBC7
:101760001356352E4FDC45EAC323DB0A45EAC12177
:10177000C912B6F120050DDD63FA05F6EB4086EAE5
:101780000305124218BF45F00105C01851F10001D0
:101790000CD213E062FA06F5F2405540F3415A408C
:1017A000B340F3405A408018594107D349085FEAD3
:1017B00030005FEA350528BF45F0010501F58011CD
:1017C000420875F1004250F1000041EB04514E0017
:1017D00016F5001F70BC38BF70470020090D0905C1
:1017E00070471CEB410F10D252EA43060BD0BCEB02
:1017F000410F05D80C0DAB43661E342EB6DD02E05A
:10180000AB438018594170BC704770BC70470000F2
:10181000F0B540F2FF7581EA030C0CF0004C15EABC
:1018200011541DBF15EA1357AC42AF42E5E0BC416D
:10183000C1F31301C3F31303801A994143F48013D6
:1018400004D2641E4000494180185941C90241EA4E
:101850005051B1FBF3F603FB1611A2FB0675D7EB53
:10186000C020A94102D2761E80185941C90241EA1E
:101870005051B1FBF3FE03FB1E11A2FB0E75D7EB1B
:10188000C020A94103D2AEF1010E8018594189024E
:1018900041EA9051760546EA8E2EB1FBF3F603FB42
:1018A0001611A2FB0675D7EB8020A94102D2761E45
:1018B00080185941C90241EA50514EEA060EB1FB67
:1018C000F3F603FB1611A2FB0675D7EBC020A94166
:1018D00002D2761E80185941C90241EA5051B1FB2B
:1018E000F3F703FB1711A2FB0735D3EBC020A94187
:1018F00067F100070CBF004247F0010766F3D527E8
:101900004FEA1E31B80814F5806412DDBD0775F189
:10191000004250EB0E5051EB045111F5801F5CBF9B
:1019200041EA0C01F0BD4CF07F6141F0E041002044
:10193000F0BDBD076D0840EA0E5041F48011D4F1AE
:101940000104B4F120060ADAC4F120060200E040E6
:1019500001FA06F3E1401843B24015430EE0342C7F
:1019600013DCC6F1200445EA40056D0820FA06F2B2
:10197000154321FA06F0A1400D43002175F1004204
:1019800050F1000051EB0C01F0BD00205FEA0C01AA
:10199000F0BDCFB992185B41B3FA83F704BFB2FA36
:1019A00082F6BF190B3FB7F120062FBF02FA06F3EC
:1019B000BB40C7F1200622FA06F638BF3343BA40CF
:1019C0001CB1E419641E33E77F4231F00041B1FAE3
:1019D00081F404BFB0FA80F6A4190B3CB4F12006E0
:1019E0002FBF00FA06F1A140C4F1200620FA06F646
:1019F00038BF3143A0403C1B1AE7AC421ABF05EA8E
:101A00001357AF4212E050EA41061CBF52EA4306A8
:101A1000BFE750EA4107304661461CBF41EA055125
:101A2000F0BD52EA430C08BFC143F0BD00204FF4A3
:101A3000001616EB410F98BF16EB430F08BF16EBCD
:101A4000410F24BFC14305E016EB430F0CBF6146B5
:101A50004CEA0551F0BD0000400D491840EA8120D4
:101A60000CD2490DA1F58061491C40F0004005DB16
:101A7000D1F11F0154BFC840C01770470020704704
:101A8000014648B1B0FA80F18840C91CC1F58461B3
:101A9000090501EBD0214005704700000048704760
:101AA00010000020012000F0B9B8000070470000CD
:101AB000841A71EB030604D26E40001BB141121967
:101AC00073414FF4001C1CEB410F34BF7CEB430609
:101AD00083E00C0DA4EB1356362E00F37C80012E10
:101AE00045EAC32341DC43EA525312BFD2029202B9
:101AF0005B08240545EAC12141EA5051D2EBC020E0
:101B0000994125D407D1B0FA80F610FA06F162D0D7
:101B10000020203608E0B1FA81F6B140C6F120027B
:101B200020FA02F21143B0404FEAF474B4EB465489
:101B300034F001064FEA74040AD8D6F50016760D83
:101B400004F00044F04061FA06F25040F140484091
:101B5000C00A40EA415021F0004128BF5FEA500529
:101B600050F1000044EBD12135E0DB0A45EAC12108
:101B7000C90AB6F120050EDD42EA0242120CC5F197
:101B8000200603FA06F6EB4042EA06056D4298414C
:101B900061F100010DE062FA06F5F240554063FA8A
:101BA00006FC82EA0C02F3405A406D42904161EB20
:101BB000030111F4801F05D1641E620502D06D007F
:101BC0004041494121F48011430875F1004350F12F
:101BD000000041EB045170BC70471CEB410F15D263
:101BE00023F0004352EA43060BD04FEA4C0CBCEB07
:101BF000410F04D80C0D661E342EB7DDEBE7801ABA
:101C0000994150EA410608BF0021E4E708BF1CEBF8
:101C1000430F28BF6FF00001DDE7000080B5AFF390
:101C20000080024A11001820ABBEFBE7260002002C
:101C300038B5040001D1012032BD00F019F808B90F
:101C400000F01AF800F01DF800F025F8FFE74161F8
:101C500000F001F832BD2068C16841F40051C16054
:101C60000020686020216970A970002161637047BD
:101C700004F140056878704700212970204600F083
:101C8000A6BB242068702068C16821F40051C1609F
:101C9000204600F0EDBA2068016921F4904101610D
:101CA0002068416921F02A0170472DE9FC41064670
:101CB0000D4696F84100202814461F4638D10DB134
:101CC000200001D1012034E000207064212186F839
:101CD000411000F08FFCB4848046F48400F033F8A7
:101CE00004BF306900281ABF2C46002500240CE0F0
:101CF0003068002C12BF14F8011B35F8021BC1F329
:101D000008014160F08C411EF1844346F08C00973D
:101D1000002810D000228021304600F0B0F90028C1
:101D2000E6D0032005E0202086F84100002000E0F6
:101D30000220BDE8F68100224021304600F09FF9E4
:101D40000028F0D0EDE7B068B0F5805F704790F8FC
:101D50004130202B12D109B1130001D1012070476D
:101D600001628284C28400214164212280F84120E2
:101D70000068C16841F0800100F0DDB902207047C1
:101D800010B500F130039C7C202C0AD109B114005D
:101D900001D1012010BD00241C60BDE8104000F0FE
:101DA000B2B9022010BD43E8002100297047016844
:101DB00001F10C0252E8002F01F10C037047136887
:101DC0000093526800927047206800F1140151E8B6
:101DD000001F00F1140221F0400142E80010002829
:101DE00070477CB5044621680B68CD684A6913F0DA
:101DF0000F0007D1980661D5AA065FD52046BDE839
:101E00007640D9E1D00702D415F4907F56D0D80798
:101E100005D5E90503D5606C40F001006064580702
:101E200005D5D10703D5606C40F0020060649807C7
:101E300005D5D10703D5606C40F004006064180735
:101E400007D5A90601D4D00703D5616C41F008017C
:101E50006164606C002830D0980604D5A90644BFA0
:101E6000204600F0A9F920684069616C0A0701D496
:101E700040061DD5204600F067F9206841694806F4
:101E800011D5FFF7A1FFFCD1E06B60B10FF21D315E
:101E90004163E06B00F0D9FB00280ED0E06B416B92
:101EA000BDE87C4008472046BDE8764000F056BCBF
:101EB000204600F053FC0020606473BD206B0128B5
:101EC00004F1410240F08080D80600D5EE067BD5B3
:101ED000002300930D6800954B68009300984969B2
:101EE00048063AD5E16B0868406880B20028E4D023
:101EF000A38D9842E1DAE0858869202827D0206800
:101F000000F10C0151E8001F00F10C0321F4807175
:101F100000F096F8F3D100F097F8490800F11403A7
:101F2000490000F08DF8F6D100F08EF800F11403AE
:101F300021F0400100F084F8F6D1202050700021FB
:101F4000216300F08FF8FCD1E06B00F059FB022018
:101F50006063A18DE08D091A30E0A08DE18D411AFA
:101F6000E08D00281CBF88B2002868D0206800F1EE
:101F70000C0353E8003F00F10C0523F4907345E88F
:101F800000300028F2D1206800F1140353E8003F2C
:101F90005B0800F114055B0045E800300028F2D131
:101FA000202050700022226300F054F822F010022A
:101FB00043E800200028F7D1022060632046BDE8F6
:101FC0007C4089B200F0CBBB180629D52E0627D558
:101FD0001078212833D1A068B0F5805F04BF206954
:101FE000002808D1206A0288C2F308024A60206AE9
:101FF000811C216204E0206A421C22620078486051
:10200000E08C401EE08480B2C8B92068C16821F02D
:102010008001C1602068C16841F04001C16073BDAA
:1020200058060CD56B060AD5C86820F04000C86079
:10203000202111702046BDE8764000F091BB73BDB1
:1020400043E8001000287047206800F1140151E8AF
:10205000001F7047206800F10C0252E8002F00F1C9
:102060000C037047206800F10C0151E8001F00F1DB
:102070000C0221F0100142E80010002870472DE901
:10208000F041069C05460E4690461F4628680168AA
:102090003140B1420CBF0120002040451BD114F15A
:1020A000010FF3D024B100F0A5FAC01B8442EDD299
:1020B00000F014F821F4D07100F042F8F8D100F0EB
:1020C00015F8FCD105F140002021417081700021FC
:1020D0000170032000E00020BDE8F081286800F1D5
:1020E0000C0151E8001F00F10C027047286800F154
:1020F000140151E8001F490800F11402490042E8A8
:1021000000100028704781628285C28500214164E9
:10211000222280F84220016921B10168CA6842F494
:102120008072CA6001684A6942F001024A6100682F
:10213000C16841F02001C1600020704721F4F071B6
:1021400042E8001000287047016801F10C0252E8D3
:10215000002F01F10C0322F4907243E800210029C2
:10216000F2D1016801F1140252E8002F520801F186
:102170001403520043E800210029F2D1016B012928
:102180000CD1016801F10C0252E8002F01F10C039F
:1021900022F0100243E800210029F2D1202180F82A
:1021A000421000220263704700000000406A0021D4
:1021B000C185C18400F0D2BA1CB590F84210222922
:1021C00054D18168826AB1F5805F0AD1016969B929
:1021D00003685968C1F308011180826A911C816209
:1021E0000FE0002904BF0169002902D10368596882
:1021F00003E00168496801F07F011170816A4A1C9F
:102200008262C18D491EC18589B269BB0168CA68F5
:1022100022F02002CA600168CA6822F48072CA6093
:1022200001684A69520852004A61202180F8421030
:1022300000224263016B012914D10263FFF7B7FD4D
:1022400022F01002FFF7AFFDF8D102681168CB064B
:1022500004D500240094FFF7B2FD0099818D00F0B1
:102260007EFA01E000F0C8FB002016BD022016BD7A
:1022700010B5044622681169E06821F44051014319
:102280001161D3681849A0680B4021690343606954
:102290000B430343D3605169A06921F440710143AA
:1022A000516112498A4202D100F01BFE01E000F0A8
:1022B00010FE6268192148439200B0FBF2F16423DA
:1022C000B1FBF3F203FB121109013231B1FBF3F060
:1022D00000F0F00101EB0211226800F00F0040183D
:1022E000906010BD00000000F3E9FFFF00380140DE
:1022F000DFF8CC0281B0016841F0010101600268A1
:1023000002F0010200920099426842F0805242605D
:10231000406800F0805000900098DFF8A802016843
:1023200021F0E06141F00071016001B0704730B50B
:1023300085B000F047F82468DFF88C52AC4218D121
:102340009F48016841F4007101600323026802F4B0
:1023500000720092009900F01FF90122006800F05D
:102360000400009000990192029301A9974800F09F
:1023700001FE05B030BD30B585B000F023F824680B
:10238000934DAC421CD18E4C206840F00800206078
:102390001222216801F008010091C02100988D48A7
:1023A000019102920321049101A900F0E3FD60680C
:1023B00040F400106060606800F400100090009825
:1023C00005B030BD044601A8102100F0BFBE78B5AD
:1023D00085B004466846102100F0B8FE21687E4AA8
:1023E0007E4D774891424FF400664FF4806421D1CE
:1023F000416841F400214160416801F4002100F08E
:10240000BFF80222036803F01003049328460499DE
:10241000019203210391009400F0BAF800F0AAF8A9
:10242000284600F0A7FD00220021342000F0ACFE79
:1024300034209BE06A4A91422FD1416841F48011D7
:102440004160416801F4801100F09AF8036803F0DC
:10245000100304930499026842F0200202604FF4D2
:102460008051006800F0200004900222049800913E
:1024700001920321039100F08AF8042000210090CA
:10248000019102916946574800F074FD0022002135
:10249000352000F079FE352068E0534A4B4D9142DB
:1024A0001CD1016841F480410160026802F480425D
:1024B000049200F070F84FF4007100F072F80021FF
:1024C0000191029100946946284600F053FD0022D4
:1024D0000021252000F058FE252047E0434A914284
:1024E0001AD1416841F400314160416801F4003182
:1024F000049100F050F8042100F053F80820002166
:1025000000900191029100F042F800220021262063
:1025100000F03AFE262029E0354A914228D1416850
:1025200041F480214160416801F4802104910499C3
:10253000026842F0080202600222036803F0080306
:102540000493049900940321039101926946214C5C
:10255000204600F00FFD00F00DF8204600F00AFDC7
:1025600000220021272000F00FFE272000F029FE86
:1025700006B070BD00210191029100966946704736
:1025800004910499026842F01002026070472846E4
:10259000694600F0EFBC0499026842F00402026050
:1025A0007047006800F00400049002220498009133
:1025B0000192032103912846694600F0DBBC00002C
:1025C00018100240040001400024014000080140AE
:1025D00000540040000C0140004C0040001001403D
:1025E0000050004000140140003801400044004009
:1025F0000048004001484068704700BF00000020CC
:1026000010B590F82110022900F1380206D00423F9
:102610001360002180F82010012010BD01680B68B4
:1026200023F00E030B60012301680C68640864004A
:102630000C60916852688B405360012180F8211032
:10264000002280F82020002010BDF8B590F821204D
:102650000024022A00F1340103D004204860012440
:102660005FE00268DFF8C460136823F00E031360B4
:102670004FF48077026815686D086D0015604FF49F
:1026800080320368B3424FF4805519D9DFF898605F
:10269000B34208BF012210D0DFF89460B34208BFF4
:1026A00010220AD0DFF88C60B34208BF3A4604D04B
:1026B000DFF88470BB4208BF2A46DFF8803027E08D
:1026C000DFF87CC063451CD0DFF878E073451AD092
:1026D000DFF874C0634518D0DFF87070BB420EBFDE
:1026E0002A46DFF86C50AB4210D0DFF86870BB426E
:1026F00008BF4FF4801209D0B34207D14FF0807267
:1027000004E0012202E0102200E03A46DFF84830FF
:102710001A60012280F8212080F82040096801B168
:1027200088472046F2BD00000804024080000240B5
:102730001C040240300402404404024004040240ED
:10274000080002401C0002403000024044000240E9
:10275000580002406C00024004000240704770477D
:102760007047000001B54FF6FF7301226946A94882
:10277000FFF79BFA009802BDF0B585B000F036FD7A
:1027800000F0F9F86846102100F0E0FCA248A34CE4
:102790000168A34DA34E41F010010160026802F0F0
:1027A000100204920499026842F020020260036859
:1027B00003F0200304930499026842F004020260CB
:1027C000036803F0040304930499026842F00802CA
:1027D00002600022006800F0080004900F210498B5
:1027E000204600F091FC00224FF44071284600F092
:1027F0008BFC4FF440400021009001910291204653
:10280000694600F0B7FB0F2100F09FF8204600F06A
:10281000B1FB4FF4407100F098F8284600F0AAFB95
:10282000684600210022002380E80E0000207E4D33
:1028300029734FF46021E961A8602875686001215F
:1028400029612E60284600F0E3FC08B100F009F988
:10285000002001210090019102906946284600F075
:102860005FFD08B100F0FDF87048714928636963A5
:102870000020A86300214FF480402864E963696464
:10288000A964E964296505F1300000F0FDFD08B197
:1028900000F0E7F867486849016000220C214FF416
:1028A000E1368260C260026141618261C26146605C
:1028B000FFF7BEF908B100F0D4F860486049016044
:1028C0004FF4165200230C2142608360C360036101
:1028D00041618361C361FFF7ABF908B100F0C1F852
:1028E00005F18407574800F039F808B100F0B9F84D
:1028F0005548B86400210C20F86539657965B965DB
:1029000039667966FE6405F1CC00FFF791F908B1EC
:1029100000F0A7F83F4F4D4800F020F808B100F054
:10292000A0F801220121204600F0EEFB0122022145
:10293000204600F0E9FBD5F8141105F58C70014430
:1029400001223846FFF71CFAF5E7009101220192B7
:1029500000210291022203926946704738600021EB
:102960000C207861B960F9603961B961F9617E6004
:102970003846FFF75DB900B595B00BA8282100F0E7
:10298000E5FB6846142100F0E1FB05A8182100F0E2
:10299000DDFB4FF480314FF400320C910D92139116
:1029A00001200B900F9002224FF4E011129214912B
:1029B0000BA800F059F808B100F053F8022101917A
:1029C0000F204FF480610090002203910292049244
:1029D0000221684600F0D8F908B100F042F802215F
:1029E0004FF400420591079205A800F0F5FD08B1EB
:1029F00000F037F815B000BD00681449884207D1CF
:102A0000134A0C4B10680D4A0249C0B200F058BE80
:102A1000704700009402002018100240001001408E
:102A2000000C0140002401409000002000540040B0
:102A3000A086010004020020004C00404C0200204F
:102A40000050004000380140004800400044004071
:102A5000044400400068B0F1804F08BF00F0D6BECB
:102A6000704772B6FEE700002DE9F843040016D067
:102A70002078DFF8B864C10713D5706800F00C0047
:102A8000042807D0706800F00C00082840D1706856
:102A9000C1033DD53068810303D56068002800F08C
:102AA000F4802078DFF89474810719D5706810F0ED
:102AB0000C0F07D0706800F00C00082860D1706817
:102AC000C1035DD43068810703D52069012840F037
:102AD000DC803168606921F0F80141EAC0013160B1
:102AE0002178080770D5A069DFF85414002865D054
:102AF00001220A60FFF77EFD0546706A810700F13A
:102B0000C680FFF777FD401B0228F6D9032035E188
:102B10006068B0F5803F04D1306840F480303060A8
:102B200014E008B930680AE0B0F5A02F306806D18B
:102B300040F480203060316841F4803105E020F4B9
:102B400080303060316821F480213160606858B194
:102B5000FFF750FD054630688103A2D4FFF74AFD18
:102B6000401B6528F7D3D1E7FFF744FD05463068E1
:102B7000810396D5FFF73EFD401B6528F7D3C5E7D7
:102B8000206970B101213960FFF734FD05463068D6
:102B9000810700F1B680FFF72DFD401B0228F6D912
:102BA000B4E73860FFF726FD05463168880797D5FA
:102BB000FFF720FD401B0228F7D9A7E70860FFF7C1
:102BC00019FD0546706A810770D5FFF713FD401B9C
:102BD0000228F7D99AE708B9306A09E00528306A6F
:102BE00006D140F004003062306A40F0010005E098
:102BF000400840003062306A20F00400306241F248
:102C00008938E06868B1FFF7F5FC8146306A8107D2
:102C100000F18480FFF7EEFCA0EB09004045F5D3FE
:102C200074E7FFF7E7FC8146306A810776D5FFF746
:102C3000E1FCA0EB09004045F6D367E7FFF7DAFCBB
:102C4000401B02287BD961E7FFF7D4FC001B022858
:102C500040F28F805AE700F093F804463068810113
:102C600040F18B80FFF7C6FC001B0228F6D94DE728
:102C700001280AD07068226A00F48031914202BFB4
:102C800000F47010616A884277D0012076E0DFF8A6
:102C9000A0020168C9084FF47A72B1FBF2F2009207
:102CA00000BF0098411E00280091F9D1207841070B
:102CB00039D5F0690025C10009D4F06940F0805091
:102CC000F0610125F06900F0805000900098DFF875
:102CD0007482D8F80000C1051BD4D8F8000040F475
:102CE0008070C8F80000FFF785FC8146D8F8000026
:102CF000C1050ED4FFF77EFCA0EB09006528F5D3D3
:102D000004E73068616920F0F80040EAC1003060F3
:102D1000E6E6E06801287FF45EAF65E71DB1F06983
:102D200020F08050F061E06938B3716801F00C0167
:102D300008299DD002288ED100F022F8054630687F
:102D400081013FF57BAF206AB0F5803F05D1716806
:102D5000A06821F40031014371607268206A616AE1
:102D600022F4741202430A437260012000F009F851
:102D70000446306881017FF567AF0020BDE8F2832B
:102D800000203866FFF736BC2DE9F0410400884684
:102D900072D06D4E00F077F802D200F06FF86BD170
:102DA0002068624D810712D5400703D5696841F458
:102DB000E06169602078010703D5686840F46050DD
:102DC00068606968A06821F0F001014369602178BA
:102DD000C80749D56068012802D129688A0303E041
:102DE0000228296802D18A0102D445E08A0743D526
:102DF0006968890840EA81006860FFF7FBFB0746C5
:102E00006868616800F00C00B0EB810F2CD0FFF710
:102E1000F1FBC01B41F289318842F1D3032021E04C
:102E20002078410705D56A68E06822F4E062024331
:102E30006A602178080706D56968206921F4605125
:102E400041EAC001696000F023F86A683F49384BE5
:102E5000C2F30312895CC84018603748006800F06C
:102E6000DDFC0020BDE8F081306800F007008045FF
:102E7000D6D200F003F8D3D00120F3E73168C908B7
:102E800048EAC1013160306800F0070040457047F2
:102E90002F4930480A6802F00C03042B00D1704718
:102EA00010B5082B13D100BF2DA4C2F38343D20366
:102EB000E35C08D5096858432DA3C1F340415A5C2F
:102EC000B0FBF2F010BD18462349484310BD194825
:102ED00010BD17481E4A006813682049C3F3022238
:102EE00006E013481A4A006813681C49C3F3C2225B
:102EF000895CC840704710B50F220260144A1368FD
:102F000003F003034360146804F0F0048460136862
:102F100003F4E063C3601268D20802F4E062026165
:102F20000948026802F007020A6010BD0010024062
:102F30000C00002000127A0008000020000042422D
:102F4000800442420070004000200240E83C00083B
:102F5000041002400024F40000093D00143D000864
:102F600002030405060708090A0B0C0D0E0F1010CA
:102F7000010200002DE9F8470027BE46644A654B70
:102F80004FF00F0882460BE016683040106006E0F4
:102F900054604C68E403F7D51068064316607F1C44
:102FA0000E6836FA07F000F0AD80012000FA07F550
:102FB0002E40AE42F3D1486858B301281AD00228F7
:102FC0001FD0032833D0112817D012281DD0524CFF
:102FD000A0421CBF514CA0421BD0514CA0421CBF70
:102FE000504CA04215D0504CA0421CBF4F4CA042A8
:102FF0000FD01EE0D1F80CE01BE0C86800F1040E11
:1030000017E0C86800F1080E13E0C86800F10C0E64
:103010000FE0886810B94FF0040E0AE001284FF065
:10302000080E14BFCAF81450CAF8105001E04FF04F
:10303000000EB6F5807F03D250464FEA870C05E0BC
:10304000A7F108040AF104004FEA840C046808FAA6
:103050000CF5AC430EFA0CF52C4304604868C00034
:103060009DD51868DFF8C8C040F0010018601C68E2
:1030700004F001040094BC000098B8085CF82050EB
:1030800004F00C0408FA04F925EA0909294DAA45B7
:1030900008BF002518D0284DAA4508BF012513D028
:1030A000264DAA4508BF02250ED0254DAA4508BFCA
:1030B000032509D0234DAA4508BF042504D0224D7D
:1030C000AA450CBF0525062505FA04F444EA0904BF
:1030D0004CF82040F0434C68E40294684CBF344301
:1030E000044094604C68A402D4684CBF344304404C
:1030F000D4604C685568A4034CBF46EA050400EA56
:10310000050445E7BDE8F18702B90904016170478C
:1031100000040140181002400000111000001210BD
:1031200000002110000022100000311000003210B9
:103130000800014000080140000C0140001001405F
:103140000014014000180140001C0140002200F062
:10315000B1BB00000901020002D41F48815470472E
:103160001E4B02F00F021A4402F8041C70471C4B5D
:1031700019684FF6FF020002114000F4E0600843B6
:10318000184908431860704738B5154B1C68C4F3DC
:103190000223C3F10704052C28BF04241D1D072D9D
:1031A00034BF0023DB1E012505FA04F4641E214010
:1031B000994005FA03F35B1E1A401143BDE8344001
:1031C000C8E7010007D4012200F01F01064B8A4026
:1031D000400943F82020704700E400E018ED00E0CB
:1031E0000CED00E00000FA0500E100E080B50748C2
:1031F000016841F0100101600320FFF7B8FF0F20C4
:1032000000F00CFBFFF774F8002002BD0020024024
:10321000F8B5044600270026002C7AD004F12405D6
:10322000686820B9AE6028702046FFF780F8204615
:1032300000F002F96968CA066CD401006AD16968B5
:1032400021F4885141F0020169602368DFF8CC1154
:10325000E269D4F804C08B4204BFB2F5402F4FF4AA
:103260000022217B42EA0C02D4F808C0BCF5807F22
:1032700014BFBCF1010F4FF4807794F814C0BCF177
:10328000010F42EA41020FD131B9A169491E490338
:1032900041F400610F4307E0696841F02001696073
:1032A000A96841F00101A960596821F469410F43FF
:1032B0005F602368DFF868119F680F4017439F60C5
:1032C000A168B1F5807F18BF012902D12669761E59
:1032D00036052168CB6A23F470031E43CE6224684E
:1032E000DFF84011A3680B40934208D10022AA6086
:1032F000696821F0020141F001016960F2BD68686E
:1033000020F0020040F010006860A86840F0010062
:10331000A86003E0686840F0100068600120F2BD1A
:10332000F8B50A46002100F1240300911C78012C15
:1033300001D10220F2BD01241C701F2754681568BA
:103340000668072C08D2641E04EB8404D6F834C047
:1033500000F05EF8756312E00D2C08D2E41F04EB58
:103360008404D6F830C000F053F8356307E00D3C14
:1033700004EB8404D6F82CC000F04AF8F562072765
:103380001668946805680A2E08D30A3E06EB4606BE
:10339000D5F80CC000F036F8EC6006E006EB460607
:1033A000D5F810C000F02EF82C611468102C18BF4E
:1033B000112C23D100681D4CA0421AD11C4805686D
:1033C0002C021BD4056845F4000505601068102820
:1033D00014D1154A174D1468B4FBF5F50A2045437E
:1033E0000095009800281EBF0098401E0090F8D15C
:1033F00004E00121586840F0200058600020187057
:103400000846F2BDB7402CEA0707B4403C4370477A
:10341000A7402CEA0707A5403D437047003C014008
:10342000FDF7E1FFFE0E1FFF0C000020002401400D
:103430000824014040420F0038B5044620688168E6
:10344000CA071BD58168490849008160FFF7D2F897
:10345000054600F015F811D5FFF7CCF8401B0328FE
:10346000F7D300F00DF8F4D5A16A41F01001A16284
:10347000E06A40F00100E062012032BD002032BD70
:1034800020688168C8077047F8B5040025D004F1AA
:103490003C05697821B9002028702046FEF76BFFB3
:1034A0002421697020680268520852000260206876
:1034B000016841F4004101602068026822F4004282
:1034C0000260FFF706FD01466068DFF8F4209042D5
:1034D00005D2DFF8F030994205D20120F2BDDFF8C5
:1034E000E8008142F9D32068DFF8E0304668B1FB9C
:1034F000F3F3B60943EA861646602668376A6068C1
:10350000904206D34FF4967043434FF47A70B3FB66
:10351000F0F35B1CBF0943EA87133362491E23683B
:10352000DE696768974206D27F0000F043F80429FD
:1035300013D2042111E0A06820B907EB470700F07F
:1035400039F805E01920474300F034F841F4804190
:1035500008050CBF012141F40041DFF8740006406A
:103560000E43DE6122681368E169206A23F0C0031C
:103570000B43034313602268DFF858009368216906
:103580000340E0680B43034393602168CA68A36962
:103590006069120A034343EA0222CA602068016894
:1035A00041F0010101600020686020216970206302
:1035B000A870F2BDB1FBF7F1491CC1F30B017047D4
:1035C000A186010080841E0000093D0040420F00DA
:1035D0000030FFFF007CFFFF2DE9FC410646354D22
:1035E0003078C10750D5A8690024C10009D4A86962
:1035F00040F08050A8610124A86900F0805000903C
:1036000000982D4F3868C10519D4386840F480708F
:103610003860FEF7EFFF80463868C1050FD4FEF72B
:10362000E9FFA0EB08006528F6D303203FE0FEF792
:10363000E1FFC01B41F28931884217D3F5E7E86901
:1036400010F440701EBF716801F44071884210D0C0
:103650001A49E86901220A60002320F440700B60D7
:10366000E861C00705D5FEF7C5FF0746E869810791
:10367000DDD5EA69706822F440720243EA611CB148
:10368000A86920F08050A8613078810705D52A68A4
:10369000B06822F4404202432A603178C80605D55A
:1036A0002968706921F48001014329600020BDE888
:1036B000F6810000041002400070004040044242C5
:1036C0002DE9F84F344D354ED5F80080344F04467F
:1036D0003078B8F1000F84B089461BD1AA2C396824
:1036E00018BF812C08D17454491C3960012231441F
:1036F0004846FEF745FB1FE0052C07D0012C0CBF08
:10370000AA28812802D00020386022E074540121C8
:10371000296013E071789A46934600F043F8CDF89B
:103720000CA0CDF808B0CDF80490014600943B46BB
:103730002A46404600F010F8286850B13868401C0E
:1037400038603118484605B0BDE8F04F0122FEF759
:1037500017BB05B0BDE8F08F2DE9F0411E460C46C1
:103760003168A142154615DA06980C4F7854611E4F
:10377000306888420ED109990898DDF81C803A46D5
:1037800000F01CF8A2B239464046FEF7E0FA0020ED
:1037900028603060BDE8F08124030020A8010020EB
:1037A000A4010020812803D1012905D106207047FA
:1037B000AA2804BF052909207047000038B50B4628
:1037C000114600BF0CA20C784D78812C03D1012D3D
:1037D0000BD1062205E0AA2C0CD1052D05D109221A
:1037E0001846BDE83840FEF7B2BABDE83240104690
:1037F00000F07AB831BD00005472616E736D697467
:10380000206973206572726F7200000002494A6875
:10381000087882184A6070470000002078B5044696
:10382000204887B0016841F00101016001A90068EA
:1038300000F00100009002A8009AFFF75CFB0598D9
:1038400010B9FFF746FB02E0FFF743FB4000164DBF
:10385000164B4FF080412960B0FBF3F0401E40F260
:10386000E73268600021EA602961A960A961284601
:1038700000F04EF8060012D1284600F056F8060077
:103880000DD11C20FFF79DFC102C07D200222146F1
:103890001C20FFF779FC0648046000E00126304652
:1038A00008B070BD1C100240DC02002040420F0036
:1038B0000800002000B500BF13009646944610395A
:1038C00028BFA0E80C50FAD85FEA417C28BF0CC0A2
:1038D00048BF40F8042BC90728BF20F8022B48BF77
:1038E00000F8012B00BD00000EB4C0B5024603A8CD
:1038F00000210190009101AB0121044878440C3073
:10390000FCF716FC06BC5DF810FB00BFB703000017
:1039100038B5040001D1012032BD00F059F818B9C2
:1039200000F0FEF800F044F935E090F83D10012970
:1039300001D001207047022180F83D100168CA685B
:1039400042F00102CA600068DFF8701088421CBFB4
:10395000DFF86C2090420ED0B0F1804F1CBFDFF832
:103960006410884207D0DFF8602090421CBFDFF867
:103970005C10884209D1816801F00701062908D04E
:10398000016841F00101016003E0026842F00102B8
:1039900002600020704702206870211D206800F03E
:1039A000C3F80120A872A870E87028716871A87126
:1039B000E871287268726870002032BD002C0140E6
:1039C000003401400004004000080040000C0040AA
:1039D00004F13C056878704710B504462068016919
:1039E0008A0715D5C1688A0712D56FF002010161F7
:1039F00001222277806910F0030F204602D000F0E8
:103A0000D8F803E000F0D6F800F087F8002020771F
:103A1000206801694A0715D5C1684A0712D56FF0B9
:103A20000401016102222277806910F4407F204660
:103A300002D000F0BEF803E000F0BCF800F06DF832
:103A400000202077206801690A0715D5C1680A0798
:103A500012D56FF00801016104222277C06910F0CD
:103A6000030F204602D000F0A4F803E000F0A2F813
:103A700000F053F80020207720680169CA0615D5A8
:103A8000C168CA0612D56FF01001016108222277C1
:103A9000C06910F4407F204602D000F08AF803E0AD
:103AA00000F088F800F039F80020207720680169DC
:103AB000CA0708D5C168CA0705D56FF001010161C1
:103AC0002046FEF7C7FF206801690A0608D5C168CD
:103AD0000A0605D56FF080010161204600F06BF801
:103AE000206801694A0608D5C1684A0605D56FF005
:103AF00040010161204600F05FF8206801698A06F4
:103B00000AD5C1688A0607D56FF0200101612046F9
:103B1000BDE8104000F051B810BD204600F04EB88E
:103B20000021297020467047F0B5DFF870C01C4FA7
:103B300003681C4C1C4D1D4E604518BFB84208D090
:103B4000B0F1804F18BFB04203D0A84218BFA042C6
:103B50000DD14A6823F070031343604518BFB84283
:103B600007D0B0F1804F1CBFB042A84201D0A042A4
:103B700003D1CA6823F4407313434A6923F08003D6
:103B80001343036060458B68C3620A68826212BF98
:103B9000B8420969016301224261F0BD002C014075
:103BA00000340140000C00400008004000040040C8
:103BB0007047704770477047704770477047000004
:103BC000FEE7FEE7FEE7FEE7FEE770477047704757
:103BD00070470948FFF700BF0848FEF702B90848D8
:103BE000FEF7FFB80748FEF7FCB80748FEF7F9B83C
:103BF0000648FEF7F6B80000DC02002014010020A1
:103C0000940200205C010020040200204C020020ED
:103C100030B5016884684218416802EB5103C90756
:103C20000BD54C4409E012F9011B12F8015B002985
:103C300004F8015B05D5491CF9D19A42F3D10C3047
:103C400030BD491EF1D5F8E710B507497944183160
:103C5000064C7C44163404E00A68081D1144884769
:103C60000146A142F8D110BD080000002400000068
:103C7000B3D2FFFF9C020000900000200000000073
:103C800091FFFFFF74010000C80000000000002049
:103C900000F00DF8002801D0FFF7D6FFAFF3008049
:103CA0000020AFF30080FEF767FD00F002F801206E
:103CB000704700F001B8000007463846FDF7AEFF38
:103CC000FBE738B504460D46284600F005F8A84243
:103CD00018BF0024204632BD0149FEF743BD00BF96
:103CE00048000020704700000000000000000000B5
:103CF00001020304060708090148804701480047FC
:103D0000E53C0008093D0008AFF30080AFF30080F8
:103D1000FFF7BEFF000000000102030400002E00B8
:103D2000FFF7FEBFFFF7FEBFFFF7FEBFFFF7FEBFC7
:103D3000FFF7FEBFFFF7FEBFFFF7FEBFFFF7FEBFB7
:103D4000FFF7FEBFFFF7FEBFFFF7FEBFFFF7FEBFA7
:103D5000FFF7FEBFFFF7FEBFFFF7FEBFFFF7FEBF97
:103D6000FFF7FEBFFFF7FEBFFFF7FEBFFFF7FEBF87
:103D7000FFF7FEBFFFF7FEBFFFF7FEBFFFF7FEBF77
:103D8000FFF7FEBFFFF7FEBFFFF7FEBFFFF7FEBF67
:103D9000FFF7FEBFFFF7FEBFFFF7FEBFFFF7FEBF57
:103DA000FFF7FEBFFFF7FEBFFFF7FEBFFFF7FEBF47
:103DB000FFF7FEBFFFF7FEBFFFF7FEBFFFF7FEBF37
:103DC000FFF7FEBFFFF7FEBFFFF7FEBFFFF7FEBF27
:103DD000FFF7FEBFFFF7FEBFFFF7FEBFFFF7FEBF17
:103DE000FFF7FEBFFFF7FEBFFFF7FEBFFFF7FEBF07
:103DF000FFF7FEBFFFF7FEBF0001F9000010FC0057
:103E00001E24F4001C3D00081C3D00081C3D000859
:103E10001C3D00081C3D00081C3D00081C3D00081E
:103E2000F8FF0B1E3D00081C3D00081C3D0008FA71
:103E3000FF15000002040101B4010020040200206B
:103E4000B4010020B4010020FC0003B4010020FCF8
:0C3E500000078C00002078000020E0003B
:0400000508003D09A9
:00000001FF
